{
  "_format": "hh-sol-artifact-1",
  "contractName": "Betting",
  "sourceName": "contracts/testBet.sol",
  "abi": [
    {
      "inputs": [],
      "stateMutability": "payable",
      "type": "constructor"
    },
    {
      "anonymous": false,
      "inputs": [
        {
          "indexed": false,
          "internalType": "address",
          "name": "sender",
          "type": "address"
        },
        {
          "indexed": false,
          "internalType": "uint256",
          "name": "amount",
          "type": "uint256"
        },
        {
          "indexed": false,
          "internalType": "uint256",
          "name": "securityId",
          "type": "uint256"
        }
      ],
      "name": "Bet",
      "type": "event"
    },
    {
      "stateMutability": "payable",
      "type": "fallback"
    },
    {
      "inputs": [],
      "name": "balance",
      "outputs": [
        {
          "internalType": "uint256",
          "name": "",
          "type": "uint256"
        }
      ],
      "stateMutability": "view",
      "type": "function"
    },
    {
      "inputs": [],
      "name": "balanceOf",
      "outputs": [
        {
          "internalType": "uint256",
          "name": "",
          "type": "uint256"
        }
      ],
      "stateMutability": "view",
      "type": "function"
    },
    {
      "inputs": [
        {
          "internalType": "uint256",
          "name": "",
          "type": "uint256"
        }
      ],
      "name": "betters",
      "outputs": [
        {
          "internalType": "address",
          "name": "",
          "type": "address"
        }
      ],
      "stateMutability": "view",
      "type": "function"
    },
    {
      "inputs": [
        {
          "internalType": "address",
          "name": "_address",
          "type": "address"
        },
        {
          "internalType": "uint256",
          "name": "index",
          "type": "uint256"
        }
      ],
      "name": "getBet",
      "outputs": [
        {
          "internalType": "uint256",
          "name": "",
          "type": "uint256"
        },
        {
          "internalType": "uint256",
          "name": "",
          "type": "uint256"
        },
        {
          "internalType": "uint256",
          "name": "",
          "type": "uint256"
        },
        {
          "internalType": "int256",
          "name": "",
          "type": "int256"
        },
        {
          "internalType": "string",
          "name": "",
          "type": "string"
        }
      ],
      "stateMutability": "view",
      "type": "function"
    },
    {
      "inputs": [
        {
          "internalType": "uint80",
          "name": "roundId",
          "type": "uint80"
        }
      ],
      "name": "getHistoricalPrice",
      "outputs": [
        {
          "internalType": "int256",
          "name": "",
          "type": "int256"
        }
      ],
      "stateMutability": "view",
      "type": "function"
    },
    {
      "inputs": [],
      "name": "getLatestPrice",
      "outputs": [
        {
          "internalType": "int256",
          "name": "",
          "type": "int256"
        }
      ],
      "stateMutability": "view",
      "type": "function"
    },
    {
      "inputs": [
        {
          "internalType": "address",
          "name": "",
          "type": "address"
        },
        {
          "internalType": "uint256",
          "name": "",
          "type": "uint256"
        }
      ],
      "name": "mappingBetters",
      "outputs": [
        {
          "internalType": "uint256",
          "name": "betAmount",
          "type": "uint256"
        },
        {
          "internalType": "uint256",
          "name": "securityId",
          "type": "uint256"
        },
        {
          "internalType": "uint256",
          "name": "uniqueTransactionId",
          "type": "uint256"
        },
        {
          "internalType": "int256",
          "name": "price",
          "type": "int256"
        },
        {
          "internalType": "string",
          "name": "securityName",
          "type": "string"
        }
      ],
      "stateMutability": "view",
      "type": "function"
    },
    {
      "inputs": [
        {
          "internalType": "uint256",
          "name": "id",
          "type": "uint256"
        },
        {
          "internalType": "uint256",
          "name": "txid",
          "type": "uint256"
        },
        {
          "internalType": "string",
          "name": "name",
          "type": "string"
        }
      ],
      "name": "placeBets",
      "outputs": [],
      "stateMutability": "payable",
      "type": "function"
    },
    {
      "inputs": [
        {
          "internalType": "address",
          "name": "_address",
          "type": "address"
        }
      ],
      "name": "removeBets",
      "outputs": [],
      "stateMutability": "nonpayable",
      "type": "function"
    },
    {
      "inputs": [
        {
          "internalType": "address payable",
          "name": "betterAddress",
          "type": "address"
        },
        {
          "internalType": "uint256",
          "name": "betNumberIndex",
          "type": "uint256"
        }
      ],
      "name": "resolveBets",
      "outputs": [],
      "stateMutability": "nonpayable",
      "type": "function"
    },
    {
      "inputs": [
        {
          "internalType": "uint256",
          "name": "amount",
          "type": "uint256"
        }
      ],
      "name": "transferFrom",
      "outputs": [],
      "stateMutability": "nonpayable",
      "type": "function"
    },
    {
      "inputs": [
        {
          "internalType": "uint256",
          "name": "amount",
          "type": "uint256"
        }
      ],
      "name": "transferTo",
      "outputs": [],
      "stateMutability": "nonpayable",
      "type": "function"
    },
    {
      "inputs": [
        {
          "internalType": "uint256",
          "name": "amount",
          "type": "uint256"
        },
        {
          "internalType": "address payable",
          "name": "destAddress",
          "type": "address"
        }
      ],
      "name": "withdraw",
      "outputs": [],
      "stateMutability": "nonpayable",
      "type": "function"
    }
  ],
  "bytecode": "0x60806040527315ef3f1260688e201aa50d6fa2c4ac03c54ec78f600360006101000a81548173ffffffffffffffffffffffffffffffffffffffff021916908373ffffffffffffffffffffffffffffffffffffffff16021790555033600160006101000a81548173ffffffffffffffffffffffffffffffffffffffff021916908373ffffffffffffffffffffffffffffffffffffffff160217905550739326bfa02add2366b30bacb125260af6410313316000806101000a81548173ffffffffffffffffffffffffffffffffffffffff021916908373ffffffffffffffffffffffffffffffffffffffff160217905550611d48806100fd6000396000f3fe6080604052600436106100c55760003560e01c80638e15f4731161007f578063b69ef8a811610059578063b69ef8a814610274578063ba0f49b71461029f578063d816d479146102c8578063eec377c0146102f1576100c6565b80638e15f473146101cb5780639fda5d62146101f6578063a28f727314610233576100c6565b8062f714ce146100c857806340dcea53146100f157806365e1d89b1461011a578063722713f71461013657806377a11f7e146101615780638a6b114b1461018a576100c6565b5b005b3480156100d457600080fd5b506100ef60048036038101906100ea9190611159565b61032e565b005b3480156100fd57600080fd5b50610118600480360381019061011391906111d7565b6103d7565b005b610134600480360381019061012f919061134a565b610502565b005b34801561014257600080fd5b5061014b610733565b60405161015891906113c8565b60405180910390f35b34801561016d57600080fd5b50610188600480360381019061018391906113e3565b61073b565b005b34801561019657600080fd5b506101b160048036038101906101ac9190611410565b6107e1565b6040516101c29594939291906114f1565b60405180910390f35b3480156101d757600080fd5b506101e0610a77565b6040516101ed919061154b565b60405180910390f35b34801561020257600080fd5b5061021d600480360381019061021891906113e3565b610b16565b60405161022a9190611575565b60405180910390f35b34801561023f57600080fd5b5061025a60048036038101906102559190611410565b610b55565b60405161026b9594939291906114f1565b60405180910390f35b34801561028057600080fd5b50610289610c30565b60405161029691906113c8565b60405180910390f35b3480156102ab57600080fd5b506102c660048036038101906102c191906113e3565b610c36565b005b3480156102d457600080fd5b506102ef60048036038101906102ea9190611590565b610cda565b005b3480156102fd57600080fd5b5061031860048036038101906103139190611612565b610ed1565b604051610325919061154b565b60405180910390f35b600254821115610373576040517f08c379a000000000000000000000000000000000000000000000000000000000815260040161036a9061168b565b60405180910390fd5b8073ffffffffffffffffffffffffffffffffffffffff166108fc839081150290604051600060405180830381858888f193505050501580156103b9573d6000803e3d6000fd5b5081600260008282546103cc91906116da565b925050819055505050565b600160009054906101000a900473ffffffffffffffffffffffffffffffffffffffff1673ffffffffffffffffffffffffffffffffffffffff163373ffffffffffffffffffffffffffffffffffffffff1614610467576040517f08c379a000000000000000000000000000000000000000000000000000000000815260040161045e9061175a565b60405180910390fd5b600460008273ffffffffffffffffffffffffffffffffffffffff1673ffffffffffffffffffffffffffffffffffffffff1681526020019081526020016000208054806104b6576104b561177a565b5b60019003818190600052602060002090600502016000808201600090556001820160009055600282016000905560038201600090556004820160006104fb9190610fce565b5050905550565b633b9aca003411610548576040517f08c379a000000000000000000000000000000000000000000000000000000000815260040161053f906117f5565b60405180910390fd5b600460003373ffffffffffffffffffffffffffffffffffffffff1673ffffffffffffffffffffffffffffffffffffffff1681526020019081526020016000206040518060a001604052803481526020018581526020018481526020016105ac610a77565b815260200183815250908060018154018082558091505060019003906000526020600020906005020160009091909190915060008201518160000155602082015181600101556040820151816002015560608201518160030155608082015181600401908051906020019061062292919061100e565b5050506005339080600181540180825580915050600190039060005260206000200160009091909190916101000a81548173ffffffffffffffffffffffffffffffffffffffff021916908373ffffffffffffffffffffffffffffffffffffffff1602179055503073ffffffffffffffffffffffffffffffffffffffff166377a11f7e346040518263ffffffff1660e01b81526004016106c191906113c8565b600060405180830381600087803b1580156106db57600080fd5b505af11580156106ef573d6000803e3d6000fd5b505050507ff41b7910e085d0992d604fd470931728fd77cc8eb504d99e50e51a0a30fcfd1a33348560405161072693929190611815565b60405180910390a1505050565b600047905090565b600360009054906101000a900473ffffffffffffffffffffffffffffffffffffffff1673ffffffffffffffffffffffffffffffffffffffff166323b872dd3330846040518463ffffffff1660e01b815260040161079a9392919061184c565b6020604051808303816000875af11580156107b9573d6000803e3d6000fd5b505050506040513d601f19601f820116820180604052508101906107dd91906118bb565b5050565b6000806000806060600460008873ffffffffffffffffffffffffffffffffffffffff1673ffffffffffffffffffffffffffffffffffffffff168152602001908152602001600020868154811061083a576108396118e8565b5b906000526020600020906005020160000154600460008973ffffffffffffffffffffffffffffffffffffffff1673ffffffffffffffffffffffffffffffffffffffff168152602001908152602001600020878154811061089d5761089c6118e8565b5b906000526020600020906005020160010154600460008a73ffffffffffffffffffffffffffffffffffffffff1673ffffffffffffffffffffffffffffffffffffffff1681526020019081526020016000208881548110610900576108ff6118e8565b5b906000526020600020906005020160020154600460008b73ffffffffffffffffffffffffffffffffffffffff1673ffffffffffffffffffffffffffffffffffffffff1681526020019081526020016000208981548110610963576109626118e8565b5b906000526020600020906005020160030154600460008c73ffffffffffffffffffffffffffffffffffffffff1673ffffffffffffffffffffffffffffffffffffffff1681526020019081526020016000208a815481106109c6576109c56118e8565b5b90600052602060002090600502016004018080546109e390611946565b80601f0160208091040260200160405190810160405280929190818152602001828054610a0f90611946565b8015610a5c5780601f10610a3157610100808354040283529160200191610a5c565b820191906000526020600020905b815481529060010190602001808311610a3f57829003601f168201915b50505050509050945094509450945094509295509295909350565b60008060008054906101000a900473ffffffffffffffffffffffffffffffffffffffff1673ffffffffffffffffffffffffffffffffffffffff1663feaf968c6040518163ffffffff1660e01b815260040160a060405180830381865afa158015610ae5573d6000803e3d6000fd5b505050506040513d601f19601f82011682018060405250810190610b0991906119ce565b5050509150508091505090565b60058181548110610b2657600080fd5b906000526020600020016000915054906101000a900473ffffffffffffffffffffffffffffffffffffffff1681565b60046020528160005260406000208181548110610b7157600080fd5b906000526020600020906005020160009150915050806000015490806001015490806002015490806003015490806004018054610bad90611946565b80601f0160208091040260200160405190810160405280929190818152602001828054610bd990611946565b8015610c265780601f10610bfb57610100808354040283529160200191610c26565b820191906000526020600020905b815481529060010190602001808311610c0957829003601f168201915b5050505050905085565b60025481565b600360009054906101000a900473ffffffffffffffffffffffffffffffffffffffff1673ffffffffffffffffffffffffffffffffffffffff1663a9059cbb33836040518363ffffffff1660e01b8152600401610c93929190611a49565b6020604051808303816000875af1158015610cb2573d6000803e3d6000fd5b505050506040513d601f19601f82011682018060405250810190610cd691906118bb565b5050565b600160009054906101000a900473ffffffffffffffffffffffffffffffffffffffff1673ffffffffffffffffffffffffffffffffffffffff163373ffffffffffffffffffffffffffffffffffffffff1614610d6a576040517f08c379a0000000000000000000000000000000000000000000000000000000008152600401610d619061175a565b60405180910390fd5b6064600460008473ffffffffffffffffffffffffffffffffffffffff1673ffffffffffffffffffffffffffffffffffffffff1681526020019081526020016000208281548110610dbd57610dbc6118e8565b5b9060005260206000209060050201600301546078610ddb9190611a72565b610de59190611bb8565b610ded610a77565b1315610ecd573073ffffffffffffffffffffffffffffffffffffffff1663ba0f49b76002600460008673ffffffffffffffffffffffffffffffffffffffff1673ffffffffffffffffffffffffffffffffffffffff1681526020019081526020016000208481548110610e6257610e616118e8565b5b906000526020600020906005020160000154610e7e9190611c22565b6040518263ffffffff1660e01b8152600401610e9a91906113c8565b600060405180830381600087803b158015610eb457600080fd5b505af1158015610ec8573d6000803e3d6000fd5b505050505b5050565b60008060008060008060008054906101000a900473ffffffffffffffffffffffffffffffffffffffff1673ffffffffffffffffffffffffffffffffffffffff16639a6fc8f5886040518263ffffffff1660e01b8152600401610f339190611c8b565b60a060405180830381865afa158015610f50573d6000803e3d6000fd5b505050506040513d601f19601f82011682018060405250810190610f7491906119ce565b9450945094509450945060008211610fc1576040517f08c379a0000000000000000000000000000000000000000000000000000000008152600401610fb890611cf2565b60405180910390fd5b8395505050505050919050565b508054610fda90611946565b6000825580601f10610fec575061100b565b601f01602090049060005260206000209081019061100a9190611094565b5b50565b82805461101a90611946565b90600052602060002090601f01602090048101928261103c5760008555611083565b82601f1061105557805160ff1916838001178555611083565b82800160010185558215611083579182015b82811115611082578251825591602001919060010190611067565b5b5090506110909190611094565b5090565b5b808211156110ad576000816000905550600101611095565b5090565b6000604051905090565b600080fd5b600080fd5b6000819050919050565b6110d8816110c5565b81146110e357600080fd5b50565b6000813590506110f5816110cf565b92915050565b600073ffffffffffffffffffffffffffffffffffffffff82169050919050565b6000611126826110fb565b9050919050565b6111368161111b565b811461114157600080fd5b50565b6000813590506111538161112d565b92915050565b600080604083850312156111705761116f6110bb565b5b600061117e858286016110e6565b925050602061118f85828601611144565b9150509250929050565b60006111a4826110fb565b9050919050565b6111b481611199565b81146111bf57600080fd5b50565b6000813590506111d1816111ab565b92915050565b6000602082840312156111ed576111ec6110bb565b5b60006111fb848285016111c2565b91505092915050565b600080fd5b600080fd5b6000601f19601f8301169050919050565b7f4e487b7100000000000000000000000000000000000000000000000000000000600052604160045260246000fd5b6112578261120e565b810181811067ffffffffffffffff821117156112765761127561121f565b5b80604052505050565b60006112896110b1565b9050611295828261124e565b919050565b600067ffffffffffffffff8211156112b5576112b461121f565b5b6112be8261120e565b9050602081019050919050565b82818337600083830152505050565b60006112ed6112e88461129a565b61127f565b90508281526020810184848401111561130957611308611209565b5b6113148482856112cb565b509392505050565b600082601f83011261133157611330611204565b5b81356113418482602086016112da565b91505092915050565b600080600060608486031215611363576113626110bb565b5b6000611371868287016110e6565b9350506020611382868287016110e6565b925050604084013567ffffffffffffffff8111156113a3576113a26110c0565b5b6113af8682870161131c565b9150509250925092565b6113c2816110c5565b82525050565b60006020820190506113dd60008301846113b9565b92915050565b6000602082840312156113f9576113f86110bb565b5b6000611407848285016110e6565b91505092915050565b60008060408385031215611427576114266110bb565b5b6000611435858286016111c2565b9250506020611446858286016110e6565b9150509250929050565b6000819050919050565b61146381611450565b82525050565b600081519050919050565b600082825260208201905092915050565b60005b838110156114a3578082015181840152602081019050611488565b838111156114b2576000848401525b50505050565b60006114c382611469565b6114cd8185611474565b93506114dd818560208601611485565b6114e68161120e565b840191505092915050565b600060a08201905061150660008301886113b9565b61151360208301876113b9565b61152060408301866113b9565b61152d606083018561145a565b818103608083015261153f81846114b8565b90509695505050505050565b6000602082019050611560600083018461145a565b92915050565b61156f81611199565b82525050565b600060208201905061158a6000830184611566565b92915050565b600080604083850312156115a7576115a66110bb565b5b60006115b585828601611144565b92505060206115c6858286016110e6565b9150509250929050565b600069ffffffffffffffffffff82169050919050565b6115ef816115d0565b81146115fa57600080fd5b50565b60008135905061160c816115e6565b92915050565b600060208284031215611628576116276110bb565b5b6000611636848285016115fd565b91505092915050565b7f696e73756666696369656e742066756e64730000000000000000000000000000600082015250565b6000611675601283611474565b91506116808261163f565b602082019050919050565b600060208201905081810360008301526116a481611668565b9050919050565b7f4e487b7100000000000000000000000000000000000000000000000000000000600052601160045260246000fd5b60006116e5826110c5565b91506116f0836110c5565b925082821015611703576117026116ab565b5b828203905092915050565b7f596f7520617265206e6f7420616c6c6f77656421000000000000000000000000600082015250565b6000611744601483611474565b915061174f8261170e565b602082019050919050565b6000602082019050818103600083015261177381611737565b9050919050565b7f4e487b7100000000000000000000000000000000000000000000000000000000600052603160045260246000fd5b7f626574206d6f7265000000000000000000000000000000000000000000000000600082015250565b60006117df600883611474565b91506117ea826117a9565b602082019050919050565b6000602082019050818103600083015261180e816117d2565b9050919050565b600060608201905061182a6000830186611566565b61183760208301856113b9565b61184460408301846113b9565b949350505050565b60006060820190506118616000830186611566565b61186e6020830185611566565b61187b60408301846113b9565b949350505050565b60008115159050919050565b61189881611883565b81146118a357600080fd5b50565b6000815190506118b58161188f565b92915050565b6000602082840312156118d1576118d06110bb565b5b60006118df848285016118a6565b91505092915050565b7f4e487b7100000000000000000000000000000000000000000000000000000000600052603260045260246000fd5b7f4e487b7100000000000000000000000000000000000000000000000000000000600052602260045260246000fd5b6000600282049050600182168061195e57607f821691505b6020821081141561197257611971611917565b5b50919050565b600081519050611987816115e6565b92915050565b61199681611450565b81146119a157600080fd5b50565b6000815190506119b38161198d565b92915050565b6000815190506119c8816110cf565b92915050565b600080600080600060a086880312156119ea576119e96110bb565b5b60006119f888828901611978565b9550506020611a09888289016119a4565b9450506040611a1a888289016119b9565b9350506060611a2b888289016119b9565b9250506080611a3c88828901611978565b9150509295509295909350565b6000604082019050611a5e6000830185611566565b611a6b60208301846113b9565b9392505050565b6000611a7d82611450565b9150611a8883611450565b9250827f7fffffffffffffffffffffffffffffffffffffffffffffffffffffffffffffff0482116000841360008413161615611ac757611ac66116ab565b5b817f80000000000000000000000000000000000000000000000000000000000000000583126000841260008413161615611b0457611b036116ab565b5b827f80000000000000000000000000000000000000000000000000000000000000000582126000841360008412161615611b4157611b406116ab565b5b827f7fffffffffffffffffffffffffffffffffffffffffffffffffffffffffffffff0582126000841260008412161615611b7e57611b7d6116ab565b5b828202905092915050565b7f4e487b7100000000000000000000000000000000000000000000000000000000600052601260045260246000fd5b6000611bc382611450565b9150611bce83611450565b925082611bde57611bdd611b89565b5b600160000383147f800000000000000000000000000000000000000000000000000000000000000083141615611c1757611c166116ab565b5b828205905092915050565b6000611c2d826110c5565b9150611c38836110c5565b9250817fffffffffffffffffffffffffffffffffffffffffffffffffffffffffffffffff0483118215151615611c7157611c706116ab565b5b828202905092915050565b611c85816115d0565b82525050565b6000602082019050611ca06000830184611c7c565b92915050565b7f526f756e64206e6f7420636f6d706c6574650000000000000000000000000000600082015250565b6000611cdc601283611474565b9150611ce782611ca6565b602082019050919050565b60006020820190508181036000830152611d0b81611ccf565b905091905056fea26469706673582212203ba5e169bf56d8af62338aa65937ea5f98fc40989087a8d58c76ff099dfc132264736f6c634300080b0033",
  "linkReferences": {},
  "deployedLinkReferences": {}
}