{
  "_format": "hh-sol-artifact-1",
  "contractName": "Betting",
  "sourceName": "contracts/testBet.sol",
  "abi": [
    {
      "inputs": [],
      "stateMutability": "payable",
      "type": "constructor"
    },
    {
      "anonymous": false,
      "inputs": [
        {
          "indexed": false,
          "internalType": "address",
          "name": "sender",
          "type": "address"
        },
        {
          "indexed": false,
          "internalType": "uint256",
          "name": "amount",
          "type": "uint256"
        },
        {
          "indexed": false,
          "internalType": "uint256",
          "name": "securityId",
          "type": "uint256"
        }
      ],
      "name": "Bet",
      "type": "event"
    },
    {
      "anonymous": false,
      "inputs": [
        {
          "indexed": false,
          "internalType": "address",
          "name": "better",
          "type": "address"
        },
        {
          "indexed": false,
          "internalType": "uint256",
          "name": "amount",
          "type": "uint256"
        },
        {
          "indexed": false,
          "internalType": "uint256",
          "name": "securityId",
          "type": "uint256"
        }
      ],
      "name": "BetWon",
      "type": "event"
    },
    {
      "stateMutability": "payable",
      "type": "fallback"
    },
    {
      "inputs": [],
      "name": "balance",
      "outputs": [
        {
          "internalType": "uint256",
          "name": "",
          "type": "uint256"
        }
      ],
      "stateMutability": "view",
      "type": "function"
    },
    {
      "inputs": [],
      "name": "balanceOf",
      "outputs": [
        {
          "internalType": "uint256",
          "name": "",
          "type": "uint256"
        }
      ],
      "stateMutability": "view",
      "type": "function"
    },
    {
      "inputs": [
        {
          "internalType": "uint256",
          "name": "",
          "type": "uint256"
        }
      ],
      "name": "betters",
      "outputs": [
        {
          "internalType": "address",
          "name": "",
          "type": "address"
        }
      ],
      "stateMutability": "view",
      "type": "function"
    },
    {
      "inputs": [
        {
          "internalType": "address",
          "name": "_address",
          "type": "address"
        },
        {
          "internalType": "uint256",
          "name": "index",
          "type": "uint256"
        }
      ],
      "name": "getBet",
      "outputs": [
        {
          "internalType": "uint256",
          "name": "",
          "type": "uint256"
        },
        {
          "internalType": "uint256",
          "name": "",
          "type": "uint256"
        },
        {
          "internalType": "uint256",
          "name": "",
          "type": "uint256"
        },
        {
          "internalType": "int256",
          "name": "",
          "type": "int256"
        },
        {
          "internalType": "string",
          "name": "",
          "type": "string"
        }
      ],
      "stateMutability": "view",
      "type": "function"
    },
    {
      "inputs": [
        {
          "internalType": "uint80",
          "name": "roundId",
          "type": "uint80"
        }
      ],
      "name": "getHistoricalPrice",
      "outputs": [
        {
          "internalType": "int256",
          "name": "",
          "type": "int256"
        }
      ],
      "stateMutability": "view",
      "type": "function"
    },
    {
      "inputs": [],
      "name": "getLatestPrice",
      "outputs": [
        {
          "internalType": "int256",
          "name": "",
          "type": "int256"
        }
      ],
      "stateMutability": "view",
      "type": "function"
    },
    {
      "inputs": [
        {
          "internalType": "address",
          "name": "",
          "type": "address"
        },
        {
          "internalType": "uint256",
          "name": "",
          "type": "uint256"
        }
      ],
      "name": "mappingBetters",
      "outputs": [
        {
          "internalType": "uint256",
          "name": "betAmount",
          "type": "uint256"
        },
        {
          "internalType": "uint256",
          "name": "securityId",
          "type": "uint256"
        },
        {
          "internalType": "uint256",
          "name": "uniqueTransactionId",
          "type": "uint256"
        },
        {
          "internalType": "int256",
          "name": "price",
          "type": "int256"
        },
        {
          "internalType": "string",
          "name": "securityName",
          "type": "string"
        }
      ],
      "stateMutability": "view",
      "type": "function"
    },
    {
      "inputs": [
        {
          "internalType": "uint256",
          "name": "betAmount",
          "type": "uint256"
        },
        {
          "internalType": "uint256",
          "name": "id",
          "type": "uint256"
        },
        {
          "internalType": "uint256",
          "name": "txid",
          "type": "uint256"
        },
        {
          "internalType": "string",
          "name": "name",
          "type": "string"
        }
      ],
      "name": "placeBets",
      "outputs": [],
      "stateMutability": "payable",
      "type": "function"
    },
    {
      "inputs": [
        {
          "internalType": "address",
          "name": "_address",
          "type": "address"
        }
      ],
      "name": "removeBets",
      "outputs": [],
      "stateMutability": "nonpayable",
      "type": "function"
    },
    {
      "inputs": [
        {
          "internalType": "address payable",
          "name": "betterAddress",
          "type": "address"
        }
      ],
      "name": "resolveBetsAll",
      "outputs": [],
      "stateMutability": "nonpayable",
      "type": "function"
    },
    {
      "inputs": [
        {
          "internalType": "address payable",
          "name": "betterAddress",
          "type": "address"
        },
        {
          "internalType": "uint256",
          "name": "betNumberIndex",
          "type": "uint256"
        }
      ],
      "name": "resolveBetsIndividual",
      "outputs": [],
      "stateMutability": "nonpayable",
      "type": "function"
    },
    {
      "inputs": [
        {
          "internalType": "uint256",
          "name": "betAmount",
          "type": "uint256"
        },
        {
          "internalType": "uint256",
          "name": "id",
          "type": "uint256"
        },
        {
          "internalType": "uint256",
          "name": "txid",
          "type": "uint256"
        },
        {
          "internalType": "string",
          "name": "name",
          "type": "string"
        }
      ],
      "name": "testBet",
      "outputs": [],
      "stateMutability": "payable",
      "type": "function"
    },
    {
      "inputs": [
        {
          "internalType": "address",
          "name": "sender",
          "type": "address"
        },
        {
          "internalType": "uint256",
          "name": "amount",
          "type": "uint256"
        }
      ],
      "name": "transferFrom",
      "outputs": [],
      "stateMutability": "nonpayable",
      "type": "function"
    },
    {
      "inputs": [
        {
          "internalType": "uint256",
          "name": "amount",
          "type": "uint256"
        }
      ],
      "name": "transferTo",
      "outputs": [],
      "stateMutability": "nonpayable",
      "type": "function"
    },
    {
      "inputs": [
        {
          "internalType": "uint256",
          "name": "amount",
          "type": "uint256"
        },
        {
          "internalType": "address payable",
          "name": "destAddress",
          "type": "address"
        }
      ],
      "name": "withdraw",
      "outputs": [],
      "stateMutability": "nonpayable",
      "type": "function"
    }
  ],
  "bytecode": "0x6080604052733c66c78d941128bddc918b4c901c954b5099eaa0600360006101000a81548173ffffffffffffffffffffffffffffffffffffffff021916908373ffffffffffffffffffffffffffffffffffffffff16021790555033600160006101000a81548173ffffffffffffffffffffffffffffffffffffffff021916908373ffffffffffffffffffffffffffffffffffffffff160217905550739326bfa02add2366b30bacb125260af6410313316000806101000a81548173ffffffffffffffffffffffffffffffffffffffff021916908373ffffffffffffffffffffffffffffffffffffffff1602179055506122d5806100fd6000396000f3fe6080604052600436106100eb5760003560e01c80638a6b114b1161008a578063b69ef8a811610059578063b69ef8a8146102df578063ba0f49b71461030a578063d6c6a18514610333578063eec377c01461035c576100ec565b80638a6b114b146101f55780638e15f473146102365780639fda5d6214610261578063a28f72731461029e576100ec565b806340dcea53116100c657806340dcea5314610169578063701883c114610192578063722713f7146101ae5780637f3150c8146101d9576100ec565b8062f714ce146100ee57806301c6adc31461011757806309abf14914610140576100ec565b5b005b3480156100fa57600080fd5b5061011560048036038101906101109190611651565b610399565b005b34801561012357600080fd5b5061013e600480360381019061013991906116cf565b610442565b005b34801561014c57600080fd5b506101676004803603810190610162919061170f565b6104e9565b005b34801561017557600080fd5b50610190600480360381019061018b919061174f565b6107f4565b005b6101ac60048036038101906101a791906118c2565b61091f565b005b3480156101ba57600080fd5b506101c3610b0d565b6040516101d09190611954565b60405180910390f35b6101f360048036038101906101ee91906118c2565b610b15565b005b34801561020157600080fd5b5061021c600480360381019061021791906116cf565b610b56565b60405161022d959493929190611a10565b60405180910390f35b34801561024257600080fd5b5061024b610dec565b6040516102589190611a6a565b60405180910390f35b34801561026d57600080fd5b5061028860048036038101906102839190611a85565b610e8b565b6040516102959190611ac1565b60405180910390f35b3480156102aa57600080fd5b506102c560048036038101906102c091906116cf565b610eca565b6040516102d6959493929190611a10565b60405180910390f35b3480156102eb57600080fd5b506102f4610fa5565b6040516103019190611954565b60405180910390f35b34801561031657600080fd5b50610331600480360381019061032c9190611a85565b610fab565b005b34801561033f57600080fd5b5061035a60048036038101906103559190611adc565b61104f565b005b34801561036857600080fd5b50610383600480360381019061037e9190611b4b565b6113c9565b6040516103909190611a6a565b60405180910390f35b6002548211156103de576040517f08c379a00000000000000000000000000000000000000000000000000000000081526004016103d590611bc4565b60405180910390fd5b8073ffffffffffffffffffffffffffffffffffffffff166108fc839081150290604051600060405180830381858888f19350505050158015610424573d6000803e3d6000fd5b5081600260008282546104379190611c13565b925050819055505050565b600360009054906101000a900473ffffffffffffffffffffffffffffffffffffffff1673ffffffffffffffffffffffffffffffffffffffff166323b872dd8330846040518463ffffffff1660e01b81526004016104a193929190611c47565b6020604051808303816000875af11580156104c0573d6000803e3d6000fd5b505050506040513d601f19601f820116820180604052508101906104e49190611cb6565b505050565b600160009054906101000a900473ffffffffffffffffffffffffffffffffffffffff1673ffffffffffffffffffffffffffffffffffffffff163373ffffffffffffffffffffffffffffffffffffffff1614610579576040517f08c379a000000000000000000000000000000000000000000000000000000000815260040161057090611d2f565b60405180910390fd5b6064600460008473ffffffffffffffffffffffffffffffffffffffff1673ffffffffffffffffffffffffffffffffffffffff16815260200190815260200160002082815481106105cc576105cb611d4f565b5b90600052602060002090600502016003015460786105ea9190611d7e565b6105f49190611ec4565b6105fc610dec565b13156107e7573073ffffffffffffffffffffffffffffffffffffffff1663ba0f49b76002600460008673ffffffffffffffffffffffffffffffffffffffff1673ffffffffffffffffffffffffffffffffffffffff168152602001908152602001600020848154811061067157610670611d4f565b5b90600052602060002090600502016000015461068d9190611f2e565b6040518263ffffffff1660e01b81526004016106a99190611954565b600060405180830381600087803b1580156106c357600080fd5b505af11580156106d7573d6000803e3d6000fd5b505050507f8f25eec129b997ba51175c8f2583cafbfc0c076ef19e2c455869730f969ec44d826002600460008673ffffffffffffffffffffffffffffffffffffffff1673ffffffffffffffffffffffffffffffffffffffff16815260200190815260200160002084815481106107505761074f611d4f565b5b90600052602060002090600502016000015461076c9190611f2e565b600460008673ffffffffffffffffffffffffffffffffffffffff1673ffffffffffffffffffffffffffffffffffffffff16815260200190815260200160002084815481106107bd576107bc611d4f565b5b9060005260206000209060050201600101546040516107de93929190611fe7565b60405180910390a15b6107f0826107f4565b5050565b600160009054906101000a900473ffffffffffffffffffffffffffffffffffffffff1673ffffffffffffffffffffffffffffffffffffffff163373ffffffffffffffffffffffffffffffffffffffff1614610884576040517f08c379a000000000000000000000000000000000000000000000000000000000815260040161087b90611d2f565b60405180910390fd5b600460008273ffffffffffffffffffffffffffffffffffffffff1673ffffffffffffffffffffffffffffffffffffffff1681526020019081526020016000208054806108d3576108d261201e565b5b600190038181906000526020600020906005020160008082016000905560018201600090556002820160009055600382016000905560048201600061091891906114c6565b5050905550565b600460003373ffffffffffffffffffffffffffffffffffffffff1673ffffffffffffffffffffffffffffffffffffffff1681526020019081526020016000206040518060a00160405280348152602001858152602001848152602001610983610dec565b81526020018381525090806001815401808255809150506001900390600052602060002090600502016000909190919091506000820151816000015560208201518160010155604082015181600201556060820151816003015560808201518160040190805190602001906109f9929190611506565b5050506005339080600181540180825580915050600190039060005260206000200160009091909190916101000a81548173ffffffffffffffffffffffffffffffffffffffff021916908373ffffffffffffffffffffffffffffffffffffffff1602179055503073ffffffffffffffffffffffffffffffffffffffff166301c6adc333866040518363ffffffff1660e01b8152600401610a9a92919061204d565b600060405180830381600087803b158015610ab457600080fd5b505af1158015610ac8573d6000803e3d6000fd5b505050507ff41b7910e085d0992d604fd470931728fd77cc8eb504d99e50e51a0a30fcfd1a338585604051610aff93929190612076565b60405180910390a150505050565b600047905090565b7ff41b7910e085d0992d604fd470931728fd77cc8eb504d99e50e51a0a30fcfd1a338585604051610b4893929190612076565b60405180910390a150505050565b6000806000806060600460008873ffffffffffffffffffffffffffffffffffffffff1673ffffffffffffffffffffffffffffffffffffffff1681526020019081526020016000208681548110610baf57610bae611d4f565b5b906000526020600020906005020160000154600460008973ffffffffffffffffffffffffffffffffffffffff1673ffffffffffffffffffffffffffffffffffffffff1681526020019081526020016000208781548110610c1257610c11611d4f565b5b906000526020600020906005020160010154600460008a73ffffffffffffffffffffffffffffffffffffffff1673ffffffffffffffffffffffffffffffffffffffff1681526020019081526020016000208881548110610c7557610c74611d4f565b5b906000526020600020906005020160020154600460008b73ffffffffffffffffffffffffffffffffffffffff1673ffffffffffffffffffffffffffffffffffffffff1681526020019081526020016000208981548110610cd857610cd7611d4f565b5b906000526020600020906005020160030154600460008c73ffffffffffffffffffffffffffffffffffffffff1673ffffffffffffffffffffffffffffffffffffffff1681526020019081526020016000208a81548110610d3b57610d3a611d4f565b5b9060005260206000209060050201600401808054610d58906120dc565b80601f0160208091040260200160405190810160405280929190818152602001828054610d84906120dc565b8015610dd15780601f10610da657610100808354040283529160200191610dd1565b820191906000526020600020905b815481529060010190602001808311610db457829003601f168201915b50505050509050945094509450945094509295509295909350565b60008060008054906101000a900473ffffffffffffffffffffffffffffffffffffffff1673ffffffffffffffffffffffffffffffffffffffff1663feaf968c6040518163ffffffff1660e01b815260040160a060405180830381865afa158015610e5a573d6000803e3d6000fd5b505050506040513d601f19601f82011682018060405250810190610e7e9190612164565b5050509150508091505090565b60058181548110610e9b57600080fd5b906000526020600020016000915054906101000a900473ffffffffffffffffffffffffffffffffffffffff1681565b60046020528160005260406000208181548110610ee657600080fd5b906000526020600020906005020160009150915050806000015490806001015490806002015490806003015490806004018054610f22906120dc565b80601f0160208091040260200160405190810160405280929190818152602001828054610f4e906120dc565b8015610f9b5780601f10610f7057610100808354040283529160200191610f9b565b820191906000526020600020905b815481529060010190602001808311610f7e57829003601f168201915b5050505050905085565b60025481565b600360009054906101000a900473ffffffffffffffffffffffffffffffffffffffff1673ffffffffffffffffffffffffffffffffffffffff1663a9059cbb33836040518363ffffffff1660e01b815260040161100892919061204d565b6020604051808303816000875af1158015611027573d6000803e3d6000fd5b505050506040513d601f19601f8201168201806040525081019061104b9190611cb6565b5050565b600160009054906101000a900473ffffffffffffffffffffffffffffffffffffffff1673ffffffffffffffffffffffffffffffffffffffff163373ffffffffffffffffffffffffffffffffffffffff16146110df576040517f08c379a00000000000000000000000000000000000000000000000000000000081526004016110d690611d2f565b60405180910390fd5b60006001600460008473ffffffffffffffffffffffffffffffffffffffff1673ffffffffffffffffffffffffffffffffffffffff168152602001908152602001600020805490506111309190611c13565b90505b600081106113c5576064600460008473ffffffffffffffffffffffffffffffffffffffff1673ffffffffffffffffffffffffffffffffffffffff168152602001908152602001600020828154811061118e5761118d611d4f565b5b90600052602060002090600502016003015460786111ac9190611d7e565b6111b69190611ec4565b6111be610dec565b13156113a9573073ffffffffffffffffffffffffffffffffffffffff1663ba0f49b76002600460008673ffffffffffffffffffffffffffffffffffffffff1673ffffffffffffffffffffffffffffffffffffffff168152602001908152602001600020848154811061123357611232611d4f565b5b90600052602060002090600502016000015461124f9190611f2e565b6040518263ffffffff1660e01b815260040161126b9190611954565b600060405180830381600087803b15801561128557600080fd5b505af1158015611299573d6000803e3d6000fd5b505050507f8f25eec129b997ba51175c8f2583cafbfc0c076ef19e2c455869730f969ec44d826002600460008673ffffffffffffffffffffffffffffffffffffffff1673ffffffffffffffffffffffffffffffffffffffff168152602001908152602001600020848154811061131257611311611d4f565b5b90600052602060002090600502016000015461132e9190611f2e565b600460008673ffffffffffffffffffffffffffffffffffffffff1673ffffffffffffffffffffffffffffffffffffffff168152602001908152602001600020848154811061137f5761137e611d4f565b5b9060005260206000209060050201600101546040516113a093929190611fe7565b60405180910390a15b6113b2826107f4565b80806113bd906121df565b915050611133565b5050565b60008060008060008060008054906101000a900473ffffffffffffffffffffffffffffffffffffffff1673ffffffffffffffffffffffffffffffffffffffff16639a6fc8f5886040518263ffffffff1660e01b815260040161142b9190612218565b60a060405180830381865afa158015611448573d6000803e3d6000fd5b505050506040513d601f19601f8201168201806040525081019061146c9190612164565b94509450945094509450600082116114b9576040517f08c379a00000000000000000000000000000000000000000000000000000000081526004016114b09061227f565b60405180910390fd5b8395505050505050919050565b5080546114d2906120dc565b6000825580601f106114e45750611503565b601f016020900490600052602060002090810190611502919061158c565b5b50565b828054611512906120dc565b90600052602060002090601f016020900481019282611534576000855561157b565b82601f1061154d57805160ff191683800117855561157b565b8280016001018555821561157b579182015b8281111561157a57825182559160200191906001019061155f565b5b509050611588919061158c565b5090565b5b808211156115a557600081600090555060010161158d565b5090565b6000604051905090565b600080fd5b600080fd5b6000819050919050565b6115d0816115bd565b81146115db57600080fd5b50565b6000813590506115ed816115c7565b92915050565b600073ffffffffffffffffffffffffffffffffffffffff82169050919050565b600061161e826115f3565b9050919050565b61162e81611613565b811461163957600080fd5b50565b60008135905061164b81611625565b92915050565b60008060408385031215611668576116676115b3565b5b6000611676858286016115de565b92505060206116878582860161163c565b9150509250929050565b600061169c826115f3565b9050919050565b6116ac81611691565b81146116b757600080fd5b50565b6000813590506116c9816116a3565b92915050565b600080604083850312156116e6576116e56115b3565b5b60006116f4858286016116ba565b9250506020611705858286016115de565b9150509250929050565b60008060408385031215611726576117256115b3565b5b60006117348582860161163c565b9250506020611745858286016115de565b9150509250929050565b600060208284031215611765576117646115b3565b5b6000611773848285016116ba565b91505092915050565b600080fd5b600080fd5b6000601f19601f8301169050919050565b7f4e487b7100000000000000000000000000000000000000000000000000000000600052604160045260246000fd5b6117cf82611786565b810181811067ffffffffffffffff821117156117ee576117ed611797565b5b80604052505050565b60006118016115a9565b905061180d82826117c6565b919050565b600067ffffffffffffffff82111561182d5761182c611797565b5b61183682611786565b9050602081019050919050565b82818337600083830152505050565b600061186561186084611812565b6117f7565b90508281526020810184848401111561188157611880611781565b5b61188c848285611843565b509392505050565b600082601f8301126118a9576118a861177c565b5b81356118b9848260208601611852565b91505092915050565b600080600080608085870312156118dc576118db6115b3565b5b60006118ea878288016115de565b94505060206118fb878288016115de565b935050604061190c878288016115de565b925050606085013567ffffffffffffffff81111561192d5761192c6115b8565b5b61193987828801611894565b91505092959194509250565b61194e816115bd565b82525050565b60006020820190506119696000830184611945565b92915050565b6000819050919050565b6119828161196f565b82525050565b600081519050919050565b600082825260208201905092915050565b60005b838110156119c25780820151818401526020810190506119a7565b838111156119d1576000848401525b50505050565b60006119e282611988565b6119ec8185611993565b93506119fc8185602086016119a4565b611a0581611786565b840191505092915050565b600060a082019050611a256000830188611945565b611a326020830187611945565b611a3f6040830186611945565b611a4c6060830185611979565b8181036080830152611a5e81846119d7565b90509695505050505050565b6000602082019050611a7f6000830184611979565b92915050565b600060208284031215611a9b57611a9a6115b3565b5b6000611aa9848285016115de565b91505092915050565b611abb81611691565b82525050565b6000602082019050611ad66000830184611ab2565b92915050565b600060208284031215611af257611af16115b3565b5b6000611b008482850161163c565b91505092915050565b600069ffffffffffffffffffff82169050919050565b611b2881611b09565b8114611b3357600080fd5b50565b600081359050611b4581611b1f565b92915050565b600060208284031215611b6157611b606115b3565b5b6000611b6f84828501611b36565b91505092915050565b7f696e73756666696369656e742066756e64730000000000000000000000000000600082015250565b6000611bae601283611993565b9150611bb982611b78565b602082019050919050565b60006020820190508181036000830152611bdd81611ba1565b9050919050565b7f4e487b7100000000000000000000000000000000000000000000000000000000600052601160045260246000fd5b6000611c1e826115bd565b9150611c29836115bd565b925082821015611c3c57611c3b611be4565b5b828203905092915050565b6000606082019050611c5c6000830186611ab2565b611c696020830185611ab2565b611c766040830184611945565b949350505050565b60008115159050919050565b611c9381611c7e565b8114611c9e57600080fd5b50565b600081519050611cb081611c8a565b92915050565b600060208284031215611ccc57611ccb6115b3565b5b6000611cda84828501611ca1565b91505092915050565b7f596f7520617265206e6f7420616c6c6f77656421000000000000000000000000600082015250565b6000611d19601483611993565b9150611d2482611ce3565b602082019050919050565b60006020820190508181036000830152611d4881611d0c565b9050919050565b7f4e487b7100000000000000000000000000000000000000000000000000000000600052603260045260246000fd5b6000611d898261196f565b9150611d948361196f565b9250827f7fffffffffffffffffffffffffffffffffffffffffffffffffffffffffffffff0482116000841360008413161615611dd357611dd2611be4565b5b817f80000000000000000000000000000000000000000000000000000000000000000583126000841260008413161615611e1057611e0f611be4565b5b827f80000000000000000000000000000000000000000000000000000000000000000582126000841360008412161615611e4d57611e4c611be4565b5b827f7fffffffffffffffffffffffffffffffffffffffffffffffffffffffffffffff0582126000841260008412161615611e8a57611e89611be4565b5b828202905092915050565b7f4e487b7100000000000000000000000000000000000000000000000000000000600052601260045260246000fd5b6000611ecf8261196f565b9150611eda8361196f565b925082611eea57611ee9611e95565b5b600160000383147f800000000000000000000000000000000000000000000000000000000000000083141615611f2357611f22611be4565b5b828205905092915050565b6000611f39826115bd565b9150611f44836115bd565b9250817fffffffffffffffffffffffffffffffffffffffffffffffffffffffffffffffff0483118215151615611f7d57611f7c611be4565b5b828202905092915050565b6000819050919050565b6000611fad611fa8611fa3846115f3565b611f88565b6115f3565b9050919050565b6000611fbf82611f92565b9050919050565b6000611fd182611fb4565b9050919050565b611fe181611fc6565b82525050565b6000606082019050611ffc6000830186611fd8565b6120096020830185611945565b6120166040830184611945565b949350505050565b7f4e487b7100000000000000000000000000000000000000000000000000000000600052603160045260246000fd5b60006040820190506120626000830185611ab2565b61206f6020830184611945565b9392505050565b600060608201905061208b6000830186611ab2565b6120986020830185611945565b6120a56040830184611945565b949350505050565b7f4e487b7100000000000000000000000000000000000000000000000000000000600052602260045260246000fd5b600060028204905060018216806120f457607f821691505b60208210811415612108576121076120ad565b5b50919050565b60008151905061211d81611b1f565b92915050565b61212c8161196f565b811461213757600080fd5b50565b60008151905061214981612123565b92915050565b60008151905061215e816115c7565b92915050565b600080600080600060a086880312156121805761217f6115b3565b5b600061218e8882890161210e565b955050602061219f8882890161213a565b94505060406121b08882890161214f565b93505060606121c18882890161214f565b92505060806121d28882890161210e565b9150509295509295909350565b60006121ea826115bd565b915060008214156121fe576121fd611be4565b5b600182039050919050565b61221281611b09565b82525050565b600060208201905061222d6000830184612209565b92915050565b7f526f756e64206e6f7420636f6d706c6574650000000000000000000000000000600082015250565b6000612269601283611993565b915061227482612233565b602082019050919050565b600060208201905081810360008301526122988161225c565b905091905056fea2646970667358221220ced1a6d3e74f837cf453e273e8458a0cbe0c79c696a6c26850ddca1966909f8064736f6c634300080b0033",
  "linkReferences": {},
  "deployedLinkReferences": {}
}